S021000074727573747A6F6E655F63616E5F656B5F7261346D335F6E732E73726563FF
S31500008000A8240020DD850000C5840000D985000075
S31500008010D9850000D9850000D9850000D9850000E2
S31500008020000000000000000000000000D9850000EC
S31500008030D985000000000000D9850000D985000020
S31500008040FFFFFFFFFFFFFFFFFFFFFFFFFFFFFFFF3A
S31500008050FFFFFFFFFFFFFFFFFFFFFFFFFFFFFFFF2A
S31500008060FFFFFFFFFFFFFFFFFFFFFFFFFFFFFFFF1A
S31500008070FFFFFFFFFFFFFFFFFFFFFFFFFFFFFFFF0A
S315000080800348044B834202D0034B03B118477047A1
S31500008090082000200820002000000000064B0749A9
S315000080A0C91A891048BF0131491003D0044B0BB1DE
S315000080B001481847704700BF08200020082000200C
S315000080C00000000010B5064C237843B9FFF7D8FF2F
S315000080D0044B13B10448AFF300800123237010BD95
S315000080E028200020000000008889000008B5054B04
S315000080F01BB105490548AFF30080BDE80840FFF70E
S31500008100CDBF00BF000000002C20002088890000A1
S3150000811080B5284C0127DFF8A890DFF8A880264E06
S31500008120264D27E098F800204FF47A71B2FA82F2D1
S31500008130520988F80020D5F83C31B1FBF0F023F065
S31500008140011323F44043134343F00403C5F83C31C1
S3150000815000F08CF9EFF3108287F31088236813B1CF
S315000081602368013B2360236813B98021F370F17003
S3150000817082F31088EFF3108287F31088236813B90F
S315000081804021F370F17023680133236082F3108875
S31500008190F9F742FF89F800000028C3D1D5F83C3131
S315000081A023F0011323F4404343F00403C5F83C31A4
S315000081B0D0E700BF94200020000D084000080840CA
S315000081C04420002045200020022800D070470249A4
S315000081D0024800F0DFB800BF1887000048200020E2
S315000081E008B5FFF795FF002008BD00BF2DE9F84F41
S315000081F00388DBB180464FF000094FF0010BDFF832
S31500008200E4A00024344D4FEAC907D8F8043035F805
S31500008210022BD919898891420AD00134032CF4D152
S31500008220B8F8003009F101094B45EAD8BDE8F88FE6
S31500008230DB590BFA04F603F0B853B3F1807FF6B2BC
S315000082409AF8BB3417D0334239D1244B1B695B07EC
S31500008250E3D5234A04F1200612F81630DB09DCD0F8
S3150000826012F8163001216FF3C713C82002F8163032
S3150000827000F0FCF8D1E7334215D0184B1B695A07BA
S31500008280CBD5174A04F1200112F81130DB09C4D10D
S3150000829012F81130C82043F0800302F81130012192
S315000082A000F0E4F8B9E7012000F06CF99AF8BB3465
S315000082B0012033438AF8BB3400F034F9DDE70120AE
S315000082C000F060F99AF8BB34012023EA06038AF825
S315000082D0BB3400F027F9B8E7B888000000000E406C
S315000082E00030084000E00140F8B50446FFF77EFF85
S315000082F0EFF31082012383F31088234F3B681BB9E9
S315000083002249CB704023CB703B6801333B6082F33C
S31500008310108823882BB361681D4C01EBC30E06E061
S315000083201B01083113448E4544F8230019D0086810
S315000083308A88C5034FEA1223D2B2F1D502EB031C99
S3150000834054F82C601B01083120F480356FF3104679
S3150000835013448E4544F82C6044F82C5044F823000E
S31500008360E5D1EFF31082012383F310883B6813B144
S315000083703B68013B3B603B681BB980200349CB70DF
S31500008380C87082F31088F8BD94200020000D0840C4
S315000083900008084008B5034B03600846FFF7A4FF32
S315000083A0002008BD54524F50074A084B006892F807
S315000083B026C0126A586153F82C300549C2F302628E
S315000083C0D3400B60704700BF00E00140082000204A
S315000083D0A0200020064B074993F826001A6A51F898
S315000083E02030C2F302620449D3400B60704700BFDD
S315000083F000E0014008200020A02000204FF40043A8
S3150000840010B50F490F4C104A1048C4E9001202F18A
S31500008410376202F5D8320E49E0600E486261A36009
S315000084202361F9F7F1FD0C4B0C4993F826001A6A03
S3150000843054F82030C2F30262D3400B6010BD00BF77
S31500008440002D31010820002000127A0000366E014E
S3150000845050200020A983000000E00140A020002059
S31500008460A0F101000028FBD1704700BF4FF47A73DA
S3150000847010B400FB01F1114C114A2468B2FBF4F26E
S31500008480A1FB03043CB9B0FBF2F0800860B15DF8D3
S31500008490044BFFF7E5BF9200B1FBF2F1A1FB03131A
S315000084A02BB908460028F2D15DF8044B70474FF00F
S315000084B0FF3C5DF8044B6046FFF7D2BFA0200020CA
S315000084C000CA9A3B70B500240A4B0B4EB3F84051D4
S315000084D0ADB225FA04F3DB0704D556F82430E0B232
S315000084E003B198470134102CF3D1024BA3F8305155
S315000084F070BD00BF0060004054200020002310B46F
S31500008500064A074C03F1C00132F8020F0133602B13
S3150000851044F82100F6D15DF8044B7047BE88000090
S3150000852000600040EFF31081012383F31088124BA3
S3150000853033F8102092B22AB133F81020013A92B2E1
S3150000854023F8102033F810309BB293B90B4A10B4BD
S31500008550B2F8FE330A4C9BB234F8100043F42543BC
S3150000856023EA0003A2F8FE3381F310885DF8044B7A
S31500008570704781F3108870479820002000E0014082
S315000085808089000030B4EFF31081012383F3108853
S315000085900E4A32F810309BB26BB90D4C0D4DB4F843
S315000085A0FE3335F810C09BB243EA0C0343F425436F
S315000085B09BB2A4F8FE3332F8103001339BB222F896
S315000085C0103081F3108830BC704700BF982000201F
S315000085D000E001408089000000BE704708B500F049
S315000085E003F8FFF7FDFDFEE74FF470021B4B70B575
S315000085F00020C3F88820FFF7E7FDFFF7FFFE012004
S31500008600FFF7E2FD164B1B68A3F5806383F30A8828
S315000086101448154A0021121A00F034F81348144A77
S315000086201449121A00F036F8134D144B5B1B002B3D
S3150000863007DD00249E1055F8043B01349847A642F6
S31500008640F9DCFFF7C7FE0220FFF7BEFDFFF756FF76
S31500008650BDE87040002000F013B800BF00ED00E058
S315000086600080000028200020A420002000200020F8
S3150000867008200020B48900000020002004200020EB
S31500008680704700BF02440346934200D1704703F887
S31500008690011BF9E70A44431E914200D1704710B509
S315000086A011F8014B914203F8014FF9D110BDFFFFBC
S315000086B04275696C7420776974682052656E6573BB
S315000086C0617320416476616E63656420466C6578EB
S315000086D069626C6520536F667477617265205061BC
S315000086E0636B6167652076657273696F6E20342EE1
S315000086F0362E3000342E362E3000000000000604E0
S31500008700F8B500BFF8BC08BC9E467047F8B500BF78
S31500008710F8BC08BC9E467047330000002087000066
S315000087200080000000000000008000000100000042
S31500008730008000000300000000400000050000006B
S315000087400040000006000000008000000700000056
S315000087501040000008000000008000000E0000002D
S31500008760008000000F00000000000104000100006E
S3150000877000000104010100000400000005010000E2
S31500008780040000000B010000040000000F010000BF
S3150000879000000106020200000000010603020000BC
S315000087A000000106040200000000010605020000A8
S315000087B00000010606020000000001060702000094
S315000087C0000001060203000004000000030300008D
S315000087D0040000000403000000000111050300006E
S315000087E0000001110603000000000111070300004C
S315000087F00000011108030000000001110903000038
S31500008800000001110A030000040000000B03000031
S315000088100400000004040000000001130704000027
S3150000882000000103080400001040000009040000D5
S31500008830104000000E040000040000000F040000B9
S3150000884000000113000500000000011301050000EF
S3150000885000800000050500000080000006050000FD
S31500008860000001070B050000000001070C050000D1
S315000088704000010501060000400001050206000057
S31500008880040000000B060000040000000C060000B7
S3150000889004000000080700000400000009070000AB
S315000088A0040000000A070000040000000C07000096
S315000088B0040000000D070000020403040404FFFF87
S315000088C000000000000000000000000000000000A2
S315000088D00000000000000000000000000000000092
S315000088E00000000000000000000000000000000082
S315000088F00000000000000000000000000000000072
S315000089000000000000000000000000000000000061
S315000089100000000000000000000000000000000051
S315000089200000000000000000000000000000000041
S315000089300000000000000000000000000000000031
S315000089400000000000000000000000000000000021
S315000089500000000000000000000000000000000011
S315000089600000000000000000000000000000000001
S3150000897000000000000000000000000000000000F1
S3150000898001000200080010001000000000000000B6
S31500008990017A5200027C0E011B0C0D001000000033
S315000089A01800000000000000100000000000000099
S309000089B000000000BD
S30D000089B4ED800000C580000003
S3150100A180FFFDFFFFFFFFFFFFFFFFFFFFFFFFFFFFDA
S3150100A190FFFFFFFFFFFFFFFFFFFFFFFFFFFFFFFFC8
S3150100A1A0FFFFFFFFFFFFFFFFFFFFFFFFFFFFFFFFB8
S3150100A1B0FFFFFFFFFFFFFFFFFFFFFFFFFFFFFFFFA8
S3150100A1C0FFFFFFFFFFFFFFFFFFFFFFFFFFFFFFFF98
S3150100A1D0FFFFFFFFFFFFFFFFFFFFFFFFFFFFFFFF88
S3150100A1E0FFFFFFFFFFFFFFFFFFFFFFFFFFFFFFFF78
S705000085DD98
